:020000040800F2
:10000000400700202902000865210008991F000808
:1000100061210008D5030008ED260008000000005B
:100020000000000000000000000000006D2100083A
:10003000D9030008000000006921000871210008B0
:10004000430200084302000843020008430200087C
:10005000430200084302000843020008430200086C
:10006000430200084302000843020008430200085C
:10007000430200084302000843020008430200084C
:10008000430200084302000843020008430200083C
:10009000430200084302000843020008430200082C
:1000A000430200084302000843020008430200081C
:1000B000430200084302000843020008430200080C
:1000C00043020008430200084302000843020008FC
:1000D00043020008430200084302000843020008EC
:1000E00043020008430200084302000843020008DC
:1000F00043020008430200084302000843020008CC
:1001000043020008430200084302000843020008BB
:1001100043020008430200084302000843020008AB
:10012000430200084302000843020008430200089B
:10013000430200084302000843020008430200088B
:10014000430200084302000843020008430200087B
:10015000430200084302000843020008430200086B
:10016000430200084302000843020008430200085B
:100170004302000843020008430200080000000098
:10018000430200084302000800F002F800F03CF8C7
:100190000AA090E8000C82448344AAF10107DA45E2
:1001A00001D100F031F8AFF2090EBAE80F0013F0F8
:1001B000010F18BFFB1A43F001031847CC250000BC
:1001C000EC250000103A24BF78C878C1FAD852074D
:1001D00024BF30C830C144BF04680C6070470000C1
:1001E0000023002400250026103A28BF78C1FBD840
:1001F000520728BF30C148BF0B6070471FB502F0DF
:10020000AAFA1FBD10B510BD00F0A9F81146FFF7FE
:10021000F5FF02F06DFA00F0C7F803B4FFF7F2FF44
:1002200003BC00F0CFF800000948804709480047A8
:10023000FEE7FEE7FEE7FEE7FEE7FEE7FEE7FEE796
:10024000FEE7FEE704480549054A064B70470000F3
:1002500025220008890100084001002040070020F5
:10026000400300204003002053EA020C00F06980A4
:100270002DE9F04B4FF00006002B1FBFB3FA83F5BA
:1002800003FA05F424FA05F65E4012BF1643B2FAEB
:1002900082F502FA05F4C5F120051EBF22FA05FC1D
:1002A00044EA0C04203556EA044C4FEA144418BFC3
:1002B000641C4FF000084FF00009904271EB030CF2
:1002C00039D3002919BFB1FA81F701FA07F6B0FA5C
:1002D00080F700FA07F6C7F120071EBF20FA07FCD7
:1002E00046EA0C062037B6FBF4FCA7EB0507103FE7
:1002F00007F01F0BCBF120062CFA06F60CFA0BFBCD
:1003000044BFB3460026202FA4BF5E464FF0000B2B
:100310005BEA060C08BF4FF0010B19EB0B0948EB29
:100320000608ABFB027C06FB02CC0BFB03CCC01B1C
:1003300071EB0C01C1E70B46024641464846BDE859
:10034000F08B13B5084318BF4FF0FF300146AFF3F1
:100350000080BDE81C407047704770477047754685
:1003600000F02CF8AE4605006946534620F0070021
:10037000854618B020B5FFF765FFBDE820404FF077
:1003800000064FF000074FF000084FF0000BAC469E
:10039000ACE8C009ACE8C009ACE8C009ACE8C009E9
:1003A00021F007018D46704710B50446AFF3008079
:1003B0002046BDE81040FFF730BF000000487047FE
:1003C0001000002001491820ABBEFEE72600020005
:1003D00070470000FEE7000070470000EFF3108058
:1003E00072B600BFFEE70000B0B5044600F0EEF8BC
:1003F000054640F20000C2F200000078611C18BF00
:10040000044400BF00F0E2F8401BA042FAD3B0BDA4
:100410002DE9F04F82B000F13E4241F6004502F175
:10042000FF77C4F2020508224FEAB726A84208BFA8
:100430000722072E38BF4FEAB7224FF0010A0024E7
:1004400000274FF00008009208E000BF023708F1D3
:100450000108202F04F1040400F0B4800E680AFAA9
:1004600008F916EA090FF1D0D1F804A00AF0030B3D
:10047000ABF10106012E17D80322866802FA07FEA7
:10048000CA6826EA0E06BA40324382604268CAF35E
:10049000001522EA090205FA08F54FEA480C6FEA4E
:1004A0000E062A4342600BE00322BA40D643BBF15A
:1004B000030FBC4604D1BC464FF0030B22E000BF43
:1004C000C2688D68324005FA0CF52A43BBF1020F71
:1004D000C26017D16FF0030202EA5802024404F02E
:1004E0001C030F25D2F820E005FA03FA0D692EEA65
:1004F0000A0E05FA03F343EA0E031362D1F804A0CF
:100500000AF0030B02680BFA0CF332401A431AF498
:10051000403F4FF0010A026098D0002243F64403A6
:100520000192C4F202031A6843F6004E42F480427C
:100530001A601A68C4F2010E02F480420192019A14
:1005400028F003024FF6084C7244CFF6FF7C52F8B5
:100550000C3004F00C060F25B540AB43009D05FAA6
:1005600006F6334342F80C30DEF808204B6842EAC6
:10057000090643F60C4CDD0258BF22EA0906CEF804
:100580000860C4F2010CDCF800209D0242EA090672
:1005900058BF22EA0906CCF80060DEF804209D036B
:1005A00042EA090658BF22EA0906CEF80460DEF8DE
:1005B0000020DB0342EA090658BF22EA0906CEF80A
:1005C000006043E702B0BDE8F08F000040F2381051
:1005D000C2F200000068704770B5B8B3044690F8E6
:1005E0003D0028B9002084F83C00204600F0EEFDD4
:1005F000242084F83D002068016821F00101016099
:10060000016841F400410160016821F4004101608A
:1006100000F066FF48F28041C0F21E0140F6001370
:10062000D4F804E088424FF00001C0F23D0348F2E4
:10063000A16C4FF0000238BF01219842C0F2010CBA
:1006400038BF0122E64538BF0A460AB1012070BD15
:100650004DF68361C4F21B31A0FB01122168950C99
:100660004B684FF4967623F03F0343EA9243754379
:1006700044F6D3564B60C1F262060B6AA5FB0656E0
:10068000B50923F03F03E64538BF950C6A1C1A43B1
:100690000A62CA6948F2A0664CF6FF73C0F201060E
:1006A000B64522EA03020BD801384FEA4E03B0FBED
:1006B000F3F001306FF31F30042898BF04201EE0D0
:1006C000A368013863B119230EFB03F3B0FBF3F009
:1006D00001306FF31F3078B100F5804008E000BFB3
:1006E0000EEB4E03B0FBF3F001306FF31F3028B177
:1006F00000F5004003E000BF012000E001201043AE
:10070000C8610868D4E9072320F0C00010431843EB
:100710000860886848F2FF3204F10C0690434CCE22
:1007200018431043A5698860C86820F0FF00304373
:100730002843C860086840F00100086000202021BC
:10074000206484F83D10206384F83E0070BD0000F2
:100750002DE9F04182B01F46164688460446FFF751
:1007600035FF94F83D1020291CD105462068816989
:10077000890713D5FFF72AFF401B1928F6D9002057
:100780002021206384F83D1084F83E00216C41F064
:100790002001216484F83C0004E000BF94F83C1080
:1007A000012903D1022002B0BDE8F081012184F8C3
:1007B0003C100168C90703D1016841F001010160E3
:1007C000016821F400610160222184F83D101021AC
:1007D00084F83E100021216466626785618D218561
:1007E0000021CFF6FF71E162E16A026811F5803FF6
:1007F00042F48062026018BF012919D1016841F4F6
:10080000807101604169089EC90724D1711C18D00C
:10081000002E00F0CB8000BFFFF7D8FE401BB04297
:1008200000F2C68020684169C907F5D013E000BF17
:100830000829E3D0216B1129E0D0E3E74169C9071A
:1008400009D14169C90706D14169C90704BF416996
:100850005FEAC171F2D02169B1F5804F08D148F04B
:100860000101C9B201614169890740F1CC8003E10E
:10087000062101EAD81707F1F00101614169090772
:1008800038D44169721C01F4806113D0002940F012
:10089000EA80002E00F01082FFF798FE401BB04265
:1008A00000F20C8220684169090723D44169490597
:1008B000F2D5D8E0002940F0D6804169090719D463
:1008C0004169490500F1CF804169090712D44169A6
:1008D000490500F1C880416909070BD44169490500
:1008E00000F1C1804169090704D441694905E4D593
:1008F000B9E000BF5FFA88F101614169890739D425
:100900004169721C01F4806114D0002940F0AB8071
:10091000002E00F0D181FFF759FE401BB04200F2DB
:10092000CD8120684169890724D441694905F2D500
:1009300099E000BF002940F096804169890719D4E9
:100940004169490500F18F804169890712D44169E5
:10095000490500F18880416989070BD4416949053F
:1009600000F181804169890704D441694905E4D5D2
:1009700079E000BF002101914169019181690191F4
:100980000199016841F4807101604169C90734D15E
:10099000711C28D056B1FFF719FE401BB04207D892
:1009A00020684169C907F6D027E000BFFFF70EFEB7
:1009B00000202021206384F83D1084F83E00216C43
:1009C00041F020012164216884F83C000868C005DA
:1009D00044BF4FF400702064012002B0BDE8F081F4
:1009E0004169C90709D14169C90706D14169C907E8
:1009F00004BF41695FEAC171F2D047F0F1010161C2
:100A00004169890738D44169721C01F4806111D0B1
:100A100049BB002E00F05081FFF7D8FD401BB042CB
:100A200000F24C8120684169890725D44169490554
:100A3000F2D518E0B9B9416989071DD44169490562
:100A400011D44169890717D4416949050BD441691B
:100A5000890711D44169490505D4416989070BD437
:100A600041694905E7D5016841F4007101606FF4FF
:100A700080614161042022E1218D99B1022927D0B2
:100A800001292DD1026822F48062026000220192C5
:100A90004269019282690192019A026842F40072ED
:100AA000026028E000210191416901918169019171
:100AB0000199016841F400710160202084F83D0033
:100AC000002084F83E0084F83C0002B0BDE8F081CC
:100AD000026822F480620260026842F4006202E06E
:100AE000026842F48062026000220192426901922F
:100AF00080690190019888B2032817D802283FD056
:100B0000012851D1002E00F099802068014651F84B
:100B1000142F520600F196800868C00600F1F2809A
:100B2000FFF754FD401BB042EFD9E0E086B100BFB3
:100B30002068014651F8142F52060ED40868C006EA
:100B400000F1E080FFF742FD401BB042F0D9CEE05B
:100B500020684169490640F1C3800069616A0870F4
:100B6000606A218D01300139606221852268638DC0
:100B7000013B638553695B0770D51169017064E0BF
:100B800020684169490745D4711C6BD0002E00F0E4
:100B9000CD80FFF71BFD401BB04200F2C9802068EA
:100BA00041694907F5D535E02068416949070ED408
:100BB000711C65D0002E00F0B980FFF707FD401BC7
:100BC000B04200F2B580206841694907F5D5016857
:100BD00021F4806101600069616A0870606A218D9A
:100BE00001300139606221852068618D013961859C
:100BF000416949070ED4711C50D0002E00F0968038
:100C0000FFF7E4FC401BB04200F29280206841698B
:100C10004907F5D5016841F4007101600069616A16
:100C20000870606A2268411C6162218D013921854A
:100C3000618D013961851169417006E02068416963
:100C400049064DD50069616A0870606A218D0130DE
:100C5000013960622185608D0138608508047FF468
:100C60004AAF2AE741694907D4D4416949075CBFC3
:100C700041695FEA4171CDD441694907F2D5C9E7BD
:100C800041694907A3D4416949075CBF41695FEAEB
:100C900041719CD441694907F2D598E741694907F8
:100CA000B8D4416949075CBF41695FEA4171B1D479
:100CB00041694907F2D5ADE7FFF788FC2020002104
:100CC0002022216384F83D2084F83E10226C1043DA
:100CD000206484F83C10012002B0BDE8F08100BF20
:100CE00050F8141FC90601460CD4FFF76FFC002012
:100CF0002021206384F83D1084F83E00206C40F0F1
:100D000020000AE06FF0100008600020202120631E
:100D100084F83D1084F83E00206C2064002084F8A4
:100D20003C00012002B0BDE8F08100BFFFF74EFC9F
:100D300000202021206384F83D1084F83E00216CBF
:100D400041F02001216484F83C00012002B0BDE89C
:100D5000F08100002DE9F04381B01F461646884619
:100D60000446FFF733FC94F83D10202920D10546B6
:100D700020688169890717D5FFF728FC401B1928CF
:100D8000F6D900202021206384F83D1084F83E002D
:100D9000216C022641F02001216484F83C00304699
:100DA00001B0BDE8F08300BF94F83C10012905D1E3
:100DB0000226304601B0BDE8F08300BF012184F86F
:100DC0003C100168C90703D1016841F001010160CD
:100DD000016821F400610160212184F83D10102197
:100DE00084F83E100021216466626785618D21854B
:100DF0000021CFF6FF71E162E16A11F5803F18BF73
:100E0000012919D1016841F4807101604169DDF85F
:100E10002090C90723D119F1010116D0B9F1000FB3
:100E200046D000BFFFF7D2FB401B484542D82068A0
:100E30004169C907F6D012E00829E3D0216B1229D5
:100E4000E0D0E3E74169C90709D14169C90706D183
:100E50004169C90704BF41695FEAC171F2D02169E4
:100E6000B1F5804F02D1FE2161E000BF062101EA09
:100E7000D811F03101614169090757D4416919F16D
:100E8000010201F480612FD0002946D1B9F1000F91
:100E900000F04281FFF79AFB401B484500F23E817B
:100EA00020684169090741D441694905F2D534E018
:100EB000FFF78CFB00202021206384F83D1084F88C
:100EC0003E00216C012641F020012164216884F854
:100ED0003C000868C00544BF4FF4007020643046F1
:100EE00001B0BDE8F08300BFB9B9416909071DD45D
:100EF0004169490511D44169090717D44169490578
:100F00000BD44169090711D44169490505D44169E8
:100F100009070BD441694905E7D5016841F400711F
:100F200001606FF4806141610420F8E0FF2101EA73
:100F300008010161416989073AD4416919F1010247
:100F400001F4806112D051BBB9F1000F00F0E080D4
:100F5000FFF73CFB401B484500F2DC8020684169FC
:100F6000890725D441694905F2D518E0B9B9416925
:100F700089071DD44169490511D44169890717D4EE
:100F8000416949050BD44169890711D44169490573
:100F900005D4416989070BD441694905E7D5016842
:100FA00041F4007101606FF4806141610420B6E09A
:100FB0000026009641690091816900910099218D78
:100FC000002900F0958009F10108014651F8142F1D
:100FD000120635D4B8F1000F16D0B9F1000F00F0A9
:100FE000AF8000BF0868400500F1B280FFF7EEFA5D
:100FF000401B484500F2A9802068014651F8142F93
:101000001206EFD51CE000BF0A68520500F1A0806F
:101010000A68120614D40A68520500F199800A6819
:1010200012060DD40A68520500F192800A68120671
:1010300006D40A68520500F18B800A681206E3D5CF
:10104000636A194611F8012B02616162618D0139F1
:101050006185278D0146A7F1010CA4F828C051F83D
:10106000142F52070DD55FEA0C420AD05A78A7F127
:10107000020C02619A1C6262628D013A6285A4F8D8
:1010800028C00A6852072FD4B8F1000F14D0B9F164
:10109000000F7BD00868400500F18080FFF796FACA
:1010A000401B484577D82068014651F8142F520755
:1010B000F0D5B4F828C017E00A6852056ED40A6863
:1010C000520711D40A68520568D40A6852070BD433
:1010D0000A68520562D40A68520705D40A685205A4
:1010E0005CD40A685207E7D55FEA0C417FF46DAF24
:1010F000016841F400710160202084F83D0084F80B
:101100003E6084F83C60304601B0BDE8F08300BF2B
:10111000FFF75CFA202002E0FFF758FA20200021B8
:101120002022216384F83D2084F83E10226C0126A1
:101130001043206484F83C10304601B0BDE8F083D1
:101140000868400504D4FFF741FA202004E000BFFE
:101150006FF480600860042000212022216384F85D
:101160003D2084F83E10226C1043206484F83C102B
:10117000206C042825D120680126016841F4007103
:101180000160304601B0BDE8F08300BF086840054B
:1011900004D4FFF71BFA202004E000BF6FF4806046
:1011A0000860042000212022216384F83D2084F877
:1011B0003E10226C1043206484F83C10206C0428FC
:1011C000D9D00126304601B0BDE8F083B0B586B075
:1011D000016845F60000C4F20000814202D006B06A
:1011E000B0BD00BF002443F630050194C4F20205EF
:1011F0002968122241F020012960296800F5DE30BB
:1012000001F0200101910199032101910491042130
:10121000059101A9CDE90224FFF7FAF800942869A5
:1012200040F480002861286900F480000090009854
:1012300006B0B0BD40F2000040F23811C2F200002A
:10124000C2F2000100780A6810440860704700008C
:1012500080B543F60040C4F20200016841F4007119
:101260000160016841F480610160016841F48071AE
:101270000160032000F074F80F2000F005F800F082
:1012800027F8002080BD000070B540F20006C2F2D1
:10129000000640F208013278C2F200014FF47A737E
:1012A0000968B3FBF2F20446B1FBF2F1084600F024
:1012B0001DFB0F2C4FF0010508D838B94FF0FF3057
:1012C00021460022002500F01FF87460284670BDFA
:1012D00082B0002043F640010190C4F202014A6846
:1012E00042F480424A604A6802F480420192019AC4
:1012F0000090086840F080500860086800F0805056
:101300000090009802B0704710B54EF60C5CCEF21B
:10131000000CDCF80030C3F3022E8EF00704042C1E
:1013200028BF0424BEF103034FF0FF3E0EFA04F47D
:1013300038BF0023A14399400EFA03F39A431143A7
:1013400000F00F02043A624409010C3200F16043DC
:10135000B0F1FF3FC8BF03F56442117010BD00003B
:101360004EF60C51CEF200010A684FF6FF031A4008
:1013700060F30A2242F0806040F0FD700860704720
:101380002DE9F041002800F08B8043F60808C4F2F4
:1013900002080446D8F8F8030D4600F0070088421A
:1013A00007D288F8F853D8F8F80300F00700A842ED
:1013B00076D12068810717D5410705D5D8F80010E8
:1013C00041F4E051C8F80010010705D5D8F8001025
:1013D00041F46041C8F80010D8F80010A26821F06C
:1013E000F0011143C8F80010C0073FD1D8F8F80346
:1013F00000F00700A84207D988F8F853D8F8F80396
:1014000000F00700A8424BD12068410707D5D8F863
:101410000010E26821F4E0511143C8F80010000701
:1014200008D5D8F80000216920F4604040EAC100E6
:10143000C8F8000000F068F8D8F8001042F27072A6
:10144000C1F30311C0F60002515C40F2080220FA19
:1014500001F140F20400C2F200000068C2F2000292
:101460001160FFF711FF0020BDE8F0816068811E68
:10147000022907D258F8081C89015CBF0120BDE889
:10148000F08111E0012807D158F8081C89035CBFDE
:101490000120BDE8F08107E058F8081C890703D453
:1014A0000120BDE8F08100BFD8F8001021F0030151
:1014B0000843C8F80000FFF789F8064641F288376C
:1014C000D8F80000616800F00C00B0EB810F8DD0FF
:1014D000FFF77CF8801BB842F2D90320BDE8F08109
:1014E00040F2080043F60801C2F20000C4F2020113
:1014F0000068096842F28072C1F38221C0F60002DE
:10150000515CC8407047000010B543F60404C4F2B3
:101510000204606800F00C0008280BD0042819BFF2
:1015200042F20040C0F2F40041F60030C0F2B700D1
:1015300010BD00BF206821682368490241F60031D0
:10154000C0F2B70100F03F02C3F388105CBF42F263
:101550000041C0F2F401A1FB00010023FEF784FE6C
:1015600021680222C1F3014102EB4101B0FBF1F01D
:1015700010BD00002DE9F04182B000286AD0044679
:10158000007843F60006C007C4F202060BD0B0682C
:1015900000F00C00042840F0A1803068800302D5E0
:1015A0006068002856D0207880071AD5B06810F0FF
:1015B0000C0F09D0B06800F00C00082840F0A8809B
:1015C0007068400200F1A4803068800702D5E068AE
:1015D00001283FD13068216920F0F80040EAC100BD
:1015E00030602078000739D4207840074ED4A569B0
:1015F0005DB3B06800F00C00082840F0BD80012DFC
:1016000028D07068E16900F480028A4222D1216A00
:1016100000F03F028A421DD147F6C071626A014064
:10162000B1EB821F16D1A26A0023CFF6FF7303EB42
:10163000C23200F440316FF30F0291420AD1E16AE5
:1016400000F07060B0EB016F04D1002002B0BDE883
:10165000F08100BF012002B0BDE8F0816069002880
:1016600040F20000C4F2472076D00121C0F8801E6D
:10167000FEF7ACFF054600BF706F8007B4D4FEF7DD
:10168000A5FF401B0228F7D9DDE000BF306C10F049
:1016900080580AD100200190306C40F080503064B6
:1016A000306C00F080500190019847F20007C4F2BE
:1016B00000073868C00541D4386840F4807038604D
:1016C000FEF784FF054600BF3868C00536D4FEF734
:1016D0007DFF401B0228F7D9B5E000BFB06800F0DD
:1016E0000C00082803D1706840023FF556AF6068CF
:1016F000B0F5803F07D0B0F5A02F40F08D80306866
:1017000040F480203060306840F4803030608DE0FC
:10171000E068002852D00020C4F247200121016077
:10172000FEF754FF054600BF306880073FF552AF13
:10173000FEF74CFF401B0228F6D984E0A068012880
:1017400005D005284ED1306F40F004003067306F6F
:1017500040F0010030674FE00021C0F8801EFEF726
:1017600035FF0546706F80077FF53EAFFEF72EFF11
:10177000401B0228F6D966E00027C4F24727002064
:101780003866FEF723FF022D05460BD13068800135
:101790005ED5FEF71BFF401B02284FF00300F5D972
:1017A00054E700BF306880017FF54FAFFEF70EFFB2
:1017B000401B02284FF00300F4D947E70020C4F291
:1017C000472000210160FEF701FF054630688007D1
:1017D0007FF507AFFEF7FAFE401B02284FF003002B
:1017E000F4D933E7316F002821F001013167316FFF
:1017F00021F0040131674DD0FEF7E8FE054641F2C5
:10180000883700BF306F800756D4FEF7DFFE401BDD
:10181000B842F7D917E000BF3168002821F48031C1
:101820003160316821F4802131604FD0FEF7CEFE67
:10183000054600BF306880033FF5B5AEFEF7C6FE33
:10184000401B6428F6D9032002B0BDE8F08100BF38
:1018500004F11C052FCD08430021CFF6FF7140EAAB
:10186000821001EBC3316FF30F0140EA05600843BA
:10187000706001203866FEF7A9FE044630688001DA
:101880003FF5E3AEFEF7A2FE001B02284FF0030077
:10189000F4D9DBE6FEF79AFE054641F2883700BF31
:1018A000306F800708D5FEF791FE401BB8424FF01D
:1018B0000300F5D9CAE600BFB8F1000F7FF497AE78
:1018C000306C20F08050306491E600BFFEF77EFE61
:1018D000054600BF306880037FF565AEFEF776FEF3
:1018E000401B64284FF00300F4D9AFE6411E0020EE
:1018F000B0EB116F1CBF012070474EF21002CEF208
:10190000000251604EF62351CEF20001F0230B701D
:10191000072190601160704710B590F83C20012AB3
:101920004FF0020251D080F83D200268D2F804E066
:10193000D2F808C00C682EF07003234341F2FF7404
:10194000C4F20004A24253600EDC40F2FF73C4F202
:1019500000039A4216DCB2F1804F2BD040F20043D4
:10196000C4F2000324E000BF40F2FF33C4F20103DD
:101970009A4213DC41F60003C4F200039A4219D0E4
:10198000002313E040F60003C4F200039A4211D092
:1019900040F60043C4F200030AE000BF44F2000333
:1019A000C4F201039A4205D040F20043C4F201039D
:1019B0009A4204D149682CF08003194391600121B7
:1019C000002280F83D1080F83C20104610BD000039
:1019D000002804BF0120704710B5044690F83D0070
:1019E00028B9002084F83C00204600F01FF80220AF
:1019F00084F83D002068211D00F0DAFD012084F804
:101A0000460084F83E0084F83F0084F8400084F8E3
:101A1000410084F8420084F8430084F8440084F8CC
:101A2000450084F83D00002010BD000081B0006832
:101A300040F60041C4F20001884201D001B0704775
:101A40000020009043F64000C4F20200016841F01B
:101A500008010160006800F008000090009801B0E3
:101A60007047000080B590F83C20012A4FF0020238
:101A700000F0C28080F83D20D0F800C04FF67772A9
:101A8000DCF8083023EA0202CCF808200B684F2B60
:101A900028DC1F2B44DD202B45D0302B43D0402B9E
:101AA00040F0AC80D1F804E0C968DCF82030DCF804
:101AB000202022F00102CCF82020DCF8182022F0AF
:101AC000F00242EA011123F00A0242EA0E02CCF8C7
:101AD0001810CCF82020DCF8081041F0470121F064
:101AE000300180E06F2B27DDB3F5005F48D0B3F500
:101AF000805F7AD0702B40F08180D1E901E3C96822
:101B0000DCF8082043EA0E0322F47F4243EA012175
:101B10001143CCF80810DCF8081041F0770162E0BE
:101B20000BB1102B6AD1DCF8081021F070011943B9
:101B300041F0070157E000BF502B35D0602B5DD13D
:101B4000D1F804E0C968DCF8203023F01003CCF8A9
:101B50002030DCF81830DCF8202023F4704322F029
:101B6000A00243EA013142EA0E12CCF81810CCF878
:101B70002020DCF8081041F0670121F0100132E06C
:101B8000D1E901E3C968DCF8082043EA0E0322F436
:101B90007F4243EA01211143CCF80810DCF8081019
:101BA00041F480411FE000BFD1F804E0C968DCF8CF
:101BB0002030DCF8202022F00102CCF82020DCF8D4
:101BC000182022F0F00242EA011123F00A0242EA50
:101BD0000E02CCF81810CCF82020DCF8081041F0E8
:101BE000570121F02001CCF808100022012180F8D3
:101BF0003D10002180F83C10104680BD0122F5E721
:101C00002DE9F04190F83C30012B04BF0220BDE8E3
:101C1000F0814FEAB202032A00F2FC80DFE802F012
:101C2000023E7EBE036840F200471A6A43F48065B4
:101C300022F001021A621C6A1A46D3F804E052F834
:101C400018CF8E6824F00204C4F20107BD4244EAB2
:101C5000060405D1CE6824F00C0426F004063443B3
:101C60000E68BD4207D1D1E905572EF4407E45EA02
:101C70000E0545EA070E2CF073073743C3F804E05E
:101C80009F614F6809695F631C629F6947F008079D
:101C90009F619F6927F004079F61B1E0036840F2EC
:101CA00000481A6A43F4806522F010021A621C6A26
:101CB0001A46D3F804E052F818CF8F6824F02004B5
:101CC000C4F20108454544EA071407D1CF686FF014
:101CD000400624F0C00406EA071634430F68454561
:101CE00007D1D1E905562EF4406E4EEA850545EA46
:101CF000860E2CF4E64646EA0727C3F804E09F6107
:101D00004F6809699F631C629F6947F400679F6180
:101D10009F6927F480679F6171E000BF036840F20C
:101D200000481A6A43F4806522F480721A621C6AC1
:101D30001A46D3F804E052F81CCF8F6824F40074DC
:101D4000C4F20108454544EA072408D1CF6840F2AF
:101D5000FF463F0224F4406427EA060634430F6836
:101D6000454507D1D1E905562EF4405E4EEA0515EA
:101D700045EA061E2CF073063743C3F804E0DF6122
:101D80004F680969DF631C62DF6947F00807DF619C
:101D9000DF6927F00407DF6132E000BF036840F22B
:101DA00000451A6A43F4806722F480521A621A4688
:101DB000D3F820C05C6852F81CEFD1F800808E6820
:101DC000C4F20105AF4204D14D6924F4804444EAD1
:101DD00085142CF4005747EA06372EF4E64646EA07
:101DE00008265C60DE614E6809691E641F62DF6957
:101DF00047F40067DF61DF6927F48067DF6109026C
:101E00001368194311600021002280F83C20084625
:101E1000BDE8F0810121002280F83C200846BDE8A1
:101E2000F0810000002804BF0120704710B504466F
:101E300090F83D0028B9002084F83C00204600F0CE
:101E40001FF8022084F83D002068211D00F0B0FB3F
:101E5000012084F8460084F83E0084F83F0084F8AE
:101E6000400084F8410084F8420084F8430084F87C
:101E7000440084F8450084F83D00002010BD0000B7
:101E80007047000041B1082910D0042914BF00F1A7
:101E9000410200F13F020BE090F83E20012A1CBFF6
:101EA00001207047022280F83E2013E000F140023A
:101EB0001278012A1CBF012070470222082907D08E
:101EC000042914BF80F8412080F83F2002E000BFC1
:101ED00080F84020006801F01F010122036A02FA25
:101EE00001F123EA01020262026A114341F2FF7228
:101EF000C4F20002904201620CDC40F2FF71C4F2B5
:101F00000001884214DCB0F1804F37D040F200412C
:101F100016E000BF40F2FF31C4F20101884215DC37
:101F200041F60001C4F20001884227D0002115E0EB
:101F300040F60001C4F2000188421FD040F6004183
:101F4000C4F20001884219D01FE000BF44F2000132
:101F5000C4F20101884211D040F20041C4F20101F3
:101F6000884212D1416C40F2004340F48062C4F2D6
:101F7000010341F400419A42416406D1816801F0B5
:101F80000701062904BF00207047016841F00101E4
:101F90000160002070470000FEE7000083B00020D1
:101FA00043F630010290C4F202010A6842F00102D5
:101FB0000A600A6802F001020292029A01900A681D
:101FC00042F020020A600A6802F020020192019A9F
:101FD0000090086840F080000860086800F0800009
:101FE0000090009803B0704780B540F29C0045F621
:101FF0000001C2F20000C4F2000148F2A062002316
:102000004FF4804CC0F2010280E80E00C0E9033CAE
:10201000C0E90533C0E90733FEF7DEFA002808BF40
:1020200080BDBDE88040FEF7D9B90000B0B594B0DE
:1020300040F6004540F2F000C4F200050021C2F273
:102040000000A72240F2E7330E91CDE90C1109916F
:10205000CDE90711CDE90511CDE90311CDE9011154
:10206000C0E90052C0E9021301618161FFF7B0FCD1
:10207000002818BFFEF7B2F94FF480500B9040F2E1
:10208000F000C2F200000BA9FFF7ECFC002818BF1B
:10209000FEF7A4F940F2F000C2F20000FFF7C2FE22
:1020A000002818BFFEF79AF940F2F0000024C2F2AF
:1020B000000008A9CDE90844FFF72EFC002818BF4E
:1020C000FEF78CF96020CDE9010440F2F000C2F285
:1020D000000001A9002203940594FFF791FD002858
:1020E00018BFFEF77BF940F2F000C2F2000001A930
:1020F0000422FFF785FD002818BFFEF76FF940F2B4
:10210000F004C2F2000401A920460822FFF778FD7E
:10211000002818BFFEF762F92068A84202D014B068
:10212000B0BD00BF002043F630010F90C4F20201A1
:102130000A6842F080020A60096801F080010F918C
:102140000F994FF4E0510F910221CDE91010CDE924
:10215000120105F504300FA9FEF75AF914B0B0BD0D
:10216000FEE70000FEE70000704700007047000037
:10217000FFF760B8B0B592B0002443F640000B946E
:10218000CDE90944CDE907440594CDE90344CDE9FF
:1021900001440094C4F202000168022541F080511C
:1021A0000160006800F080500090009847F2000045
:1021B0000094C4F20000016841F4804101600068AD
:1021C00000F48040009000980120099010200A90AF
:1021D00008200E90A820CDE90F050420119006A834
:1021E0000695CDE90C54FFF7C5F928B1EFF310803F
:1021F00072B600BFFEE700BF0F20CDE901054FF426
:10220000A05004904FF48050059001A8052103943C
:10221000FFF7B6F820B1EFF3108072B6FEE700BF0B
:1022200012B0B0BD4EF68850CEF20000016841F405
:102230007001016070470000C18890ED031A00EE44
:10224000101AB8EE400A21EE000A0289BDEEC00A5B
:1022500010EE101A00EE102AB8EE400A21EE000A25
:102260004289BDEEC00A818310EE101A00EE102ADA
:10227000B8EE400A21EE000ABDEEC00AC18310EE9E
:10228000101A0184704700002DE9F04184B0044623
:1022900090F8290010B9204600F07AF840F20C08B6
:1022A000C2F2000840F29C059420B8F80070C2F217
:1022B000000502AE8DF8080028465221324601235F
:1022C0000097FEF747FDB8F80070284652213246C5
:1022D00002230097FEF73CFABDF80800B8F800703A
:1022E00000BA000CA08096200DF10A068DF80A00B5
:1022F00028465221324601230097FEF72BFDB8F8FD
:10230000007028465221324602230097FEF720FA39
:10231000BDF80A00B8F8007000BA000CE080982000
:1023200003AE8DF80C002846522132460123009757
:10233000FEF710FDB8F800702846522132460223FD
:102340000097FEF705FABDF80C00B8F8007000BA67
:10235000000C20819A200DF10E068DF80E00284603
:102360005221324601230097FEF7F4FCB8F80070C2
:1023700028465221324602230097FEF7E9F9BDF8BC
:102380000E0000BA000C608104B0BDE8F0810000CE
:102390002DE9F04383B040F20C09C2F20009B9F80C
:1023A000001040F29C0504469220C2F200050DF197
:1023B00005068DF80500009128465221324601237A
:1023C0004FF00108FEF7C6FCB9F80070284652210C
:1023D000324601230097FEF7BBF99DF805004D2812
:1023E00084F8280001D0442842D12046F62184F800
:1023F000298000F067F894F82900FF21C3F67F31A7
:10240000E16010B92046FFF7C3FF40F29C0640F29E
:102410008F10B9F80070C2F20006ADF80A000DF195
:102420000A023046522102230097FEF793FC4FF434
:10243000C070B9F800700125ADF806000DF1060274
:1024400030465221022325700097FEF783FC4FF49B
:102450006070B9F80070ADF8080002AA3046522149
:1024600002230097FEF776FC284603B0BDE8F08310
:102470000025284603B0BDE8F0830000B0B582B067
:10248000044690F829000D4610B92046FFF780FF5A
:102490008F208DF8060040F20C00C2F20000B0F868
:1024A00000C040F29C00C2F200000DF10602522171
:1024B00002238DF80750CDF800C0FEF74BFC2570C5
:1024C00002B0B0BD2DE9F04784B0044690F8290071
:1024D00040F20C080D460028C2F2000852D1B8F8AC
:1024E000001040F29C0A9220C2F2000A0DF10F0780
:1024F0008DF80F000091504652213A4601234FF0CB
:102500000109FEF727FCB8F80060504652213A4610
:1025100001230096FEF71CF99DF80F004D2884F862
:10252000280001D044282DD12046F62184F8299096
:10253000FFF7C8FFFF20C3F67F30E060204601218F
:10254000FFF79CFF40F29C064FF4C070B8F8007093
:10255000C2F20006ADF80B000DF10B02304652211D
:1025600002230097FEF7F6FB4FF46070B8F8007096
:10257000ADF80D000DF10D023046522102230097F7
:10258000FEF7E8FB81208DF80900B8F8007040F2F2
:102590009C00C2F200000DF10902522102238DF8C5
:1025A0000A500097FEF7D6FB657004B0BDE8F087CF
:1025B00010B540F6FF3E0368C4F2000E40F2004C36
:1025C0007045C4F2010C27DCB0F1804F31D040F2ED
:1025D0000042C4F2000290422BD040F60002C4F246
:1025E0000002904225D041F6FF72C4F200029042F0
:1025F00029DC70453CDCB0F1804F5FD040F20042F6
:10260000C4F20002904259D040F60002C4F2000227
:10261000904253D056E000BF40F60042C4F20002A0
:10262000904206D0604504D00022C4F201029042DC
:10263000D9D14A6823F07003134341F6FF72C4F204
:1026400000029042D5DD43F6FF72C4F201029042CF
:1026500022DC42F20002C4F2000290422ED000229C
:10266000C4F20102904229D0604527D02AE000BF81
:1026700040F60042C4F2000290421FD041F6000230
:10268000C4F20002904219D041F60042C4F20002A6
:10269000904213D016E000BF44F20002C4F20102DF
:1026A00090420BD044F60002C4F20102904205D0E1
:1026B00044F20042C4F20102904203D1CA6823F4FA
:1026C0004073134323F080024B69D1F800E08C681B
:1026D0001A430260C46240F48062C0F828E0624598
:1026E00004BF096901630121416110BDFEE70000DB
:1026F000FEF7AEFDFFF73EFDFFF750FCFFF774FC61
:10270000FFF794FC40F27004C2F200042046FFF789
:102710003FFE40F2F005C2F2000528460021FFF717
:10272000B1FB28460421FFF7ADFB28460821FFF73F
:10273000A9FB00BF2046FFF7A7FD2046FFF77CFD61
:102740000120FDF751FE208C29684863E08B8863E7
:10275000A08BC863EEE7F1EE100A4FF6FF71C0F2EE
:10276000C03120EA010040F04070E1EE100A7047ED
:102770000000000000000000010203040607080931
:102780000000000001020304A82700080000002048
:1027900010000000C4010008B82700081000002045
:1027A00030070000E00100080100000010000000F8
:0827B0000024F400E80300001E
:040000050800018965
:00000001FF
